:020000040800F2
:10000000A0060020450100089F0C0008BB0900085D
:100010009B0C0008AD050008411800080000000016
:100020000000000000000000000000003511000882
:1000300059080008000000008B0E0008211200087B
:100040005F0100085F0100085F0100085F01000810
:100050005F0100085F0100085F0100085F01000800
:100060005F0100085F0100085F0100085F010008F0
:100070005F0100085F0100085F0100085F010008E0
:100080005F0100085F0100085F0100085F010008D0
:100090005F0100085F0100085F0100085F010008C0
:1000A0005F0100085F0100085F0100085F010008B0
:1000B000111300085F0100085F0100085F010008DC
:1000C0005F0100085F0100085F0100085F01000890
:1000D0005F0100085F0100085F0100083116000899
:1000E0005F0100085F0100085F0100085F01000870
:1000F0005F0100085F0100085F0100085F01000860
:100100005F0100085F0100085F0100085F0100084F
:100110005F0100085F0100085F0100085F0100083F
:100120005F0100085F0100085F0100085F0100082F
:10013000DFF80CD000F018F8004800470919000853
:10014000A00600200648804706480047FEE7FEE775
:10015000FEE7FEE7FEE7FEE7FEE7FEE7FEE7FEE777
:100160006512000831010008064C074D06E0E06802
:1001700040F0010394E8070098471034AC42F6D3EE
:10018000FFF7DAFF082300082823000870B58C1851
:1001900010F8015B15F0070301D110F8013B2A119B
:1001A00006D110F8012B03E010F8016B01F8016B88
:1001B0005B1EF9D12B0705D40023521E0DD401F884
:1001C000013BFAE710F8013BCB1A921C03E013F84D
:1001D000015B01F8015B521EF9D5A142D8D3002082
:1001E00070BD000008B50121084600F05BFE01214A
:1001F0004FF4047000F076FE0220ADF800000020FD
:100200008DF803006946024800F027FB08BD000096
:100210000010014010B5FFF7E5FF00F001F810BD38
:1002200000B591B0334800F053FA33480190334899
:10023000029000200390322004900020059080203E
:10024000069040000790800008902020099000024E
:100250000A9000200B9001A9264800F0DFFA012146
:10026000244800F029FA00200C9001208DF8340079
:100270008DF835004FF460200E9000200F90012083
:100280008DF840000CA91C484C3800F063F84FF47E
:10029000404000F0FBFD072301220A2116484C389C
:1002A00000F080F8012114484C3800F034F80121A6
:1002B00011484C3800F024F80F484C3800F0CEF8C4
:1002C00000BF0D484C3800F03BF80028F9D10A482F
:1002D0004C3800F0D3F800BF07484C3800F026F83F
:1002E0000028F9D1012104484C3800F0BCF811B0C5
:1002F00000BD0000080002404C24014038020020EC
:1003000021B1826842F00102826003E0826822F03B
:1003100001028260704721B1826842F4807282607B
:1003200003E0826822F480728260704701460020F8
:100330008A6802F004020AB1012000E00020704740
:10034000014600208A6802F008020AB1012000E09C
:100350000020704730B502460020002350680F4C43
:1003600020400D790C6844EA0524204350609068D1
:100370000B4C2040D1E902542C434D7944EA45040A
:1003800020439060D06A20F470000C7C641EE4B2BC
:10039000234340EA0350D06230BD0000FFFEF0FF6F
:1003A000FDF7F1FFF0B504460D4600200021092DB0
:1003B00011DDE068A5F10A0606EB4607072606FAF6
:1003C00007F18843A5F10A0606EB460603FA06F193
:1003D0000843E0600CE0206905EB4507072606FAB4
:1003E00007F1884305EB450603FA06F1084320614F
:1003F000072A0FDA606B561E06EB86071F2606FAE1
:1004000007F18843561E06EB860605FA06F10843F7
:10041000606322E00D2A0FDA206BD61F06EB8607F9
:100420001F2606FA07F18843D61F06EB860605FA53
:1004300006F10843206310E0E06AA2F10D0606EB26
:1004400086071F2606FA07F18843A2F10D0606EB80
:10045000860605FA06F10843E062F0BD816841F0C6
:1004600008018160704721B1826842F4A002826075
:1004700003E0826822F4A00282607047816841F044
:1004800004018160704710B500F004F801F04FF8E6
:1004900010BD000000B585B001210D2000F022FD47
:1004A0000121880400F00EFD4FF48060ADF81000CB
:1004B00003208DF8120018208DF8130004A92B4892
:1004C00000F0CBF94FF40060ADF8100004208DF877
:1004D000130004A9254800F0C0F94FF4165000900D
:1004E0000020ADF80400ADF80600ADF808000C20BF
:1004F000ADF80A000020ADF80C0069461C4801F078
:1005000029F9012240F22551194801F0FEF8402155
:10051000174801F09FF80121154801F0B3F80220B7
:10052000ADF8100003208DF8120010208DF8130094
:1005300004A9104800F091F94FF40050ADF81000F4
:1005400003208DF8120010208DF8130004A907482D
:1005500000F083F90221074800F013FA4FF400512C
:10056000024800F010FA05B000BD0000000C014088
:10057000004800400008014010B504464FF4005107
:10058000094800F0FEF90A2001F06CF90721204625
:1005900001F0A0FA0A2001F065F94FF40051024879
:1005A00000F0F1F910BD0000000C014000BFFEE7B3
:1005B00002460020012103E0535C58404B1CD9B295
:1005C0000529F9DB7047000008B54FF48070ADF8DD
:1005D000000004208DF803006946024800F03DF950
:1005E00008BD00000008014008B54FF48070ADF868
:1005F000000003208DF8020010208DF803006946EA
:10060000014800F02AF908BD0008014008B50121A1
:10061000042000F067FC4FF48070ADF80000032068
:100620008DF8020010208DF803000101034800F04E
:10063000AAF96946014800F010F908BD0008014018
:1006400010B50024FFF7D0FF4FF48071194800F077
:1006500098F9142001F006F9FFF7B6FF1E2001F00B
:100660001FF904E0601CC4B2012001F019F94FF435
:100670008071104800F07CF9012801D15A2CF1DB7F
:100680005A2C01DD002010BD002404E0601CC4B21F
:10069000012001F005F94FF48071064800F068F977
:1006A00008B95A2CF2DB5A2C01DD0020EBE70120BF
:1006B000E9E700000008014021B1026842F00102B0
:1006C000026004E002684FF6FE731A400260704751
:1006D00001684FF6FE721140016000210160416027
:1006E0008160C1604B49884208D14A49083949684C
:1006F00041F00F01474A083A51608AE045491431F8
:10070000884208D143490839496841F0F001414A1B
:10071000083A51607DE03F492831884208D13D497F
:100720000839496841F470613A4A083A516070E00A
:1007300038493C31884208D136490839496841F482
:100740007041344A083A516063E03249503188427E
:1007500008D130490839496841F470212D4A083AD6
:10076000516056E02B496431884208D12949083943
:10077000496841F47001274A083A516049E0254927
:100780007831884208D123490839496841F07061BD
:10079000204A083A51603CE01F49884206D1011FB7
:1007A000096841F00F01021F116032E01A4914314B
:1007B000884208D11849091F096841F0F001164A1A
:1007C000121F116025E014492831884208D11249CE
:1007D000091F096841F470610F4A121F116018E087
:1007E0000D493C31884208D10B49091F096841F481
:1007F0007041094A121F11600BE0074950318842CD
:1008000007D10549091F096841F47021024A121FE6
:1008100011607047080002400804024010B5002231
:10082000026847F6F0739A430C6A8B6823430C699D
:1008300023434C6923438C692343CC6923434C6A8B
:1008400023438C6A23431A430260CB6843600B68DE
:1008500083604B68C36010BD70472DE9F0410246CC
:1008600000250026002000230024002791F803C063
:100870000CF00F0591F803C00CF0100CBCF1000F48
:1008800003D091F802C04CEA050591F800C0BCF114
:10089000000F31D0146800202BE04FF0010C0CFA4F
:1008A00000F3B1F800C00CEA03069E4220D1830099
:1008B0004FF00F0C0CFA03F7BC4305FA03FC4CEAAB
:1008C000040491F803C0BCF1280F06D14FF0010CCD
:1008D0000CFA00FCC2F814C00AE091F803C0BCF1A5
:1008E000480F05D14FF0010C0CFA00FCC2F810C003
:1008F000401C0828D1D31460B1F800C0BCF1FF0F30
:1009000034DD546800202EE000F1080C4FF001089F
:1009100008FA0CF3B1F800C00CEA03069E4221D19C
:1009200083004FF00F0C0CFA03F7BC4305FA03FCED
:100930004CEA040491F803C0BCF1280F05D100F182
:10094000080C08FA0CF8C2F8148091F803C0BCF146
:10095000480F07D100F1080C4FF0010808FA0CF815
:10096000C2F81080401C0828CED35460BDE8F08146
:100970000246002093680B400BB1012000E00020EC
:1009800070474161704701617047000000B500F099
:10099000A5FF0148008800BD1400002030B50446C2
:1009A0000D46042020716120E070A5700020607069
:1009B0002046FFF7FDFD207030BD00BFFEE710B5FB
:1009C0000446A0B200F04EFF10BD70B506460024EC
:1009D00015E004F1B001C8B200F0E4F8012000F025
:1009E000E1F8102000F0DEF8002504E0304600F0C9
:1009F000E5F8681CC5B2802DF8DB601CC4B2082C79
:100A0000E7DB70BD10B500F08DF900F0A3F8AE2063
:100A100000F0C8F8002000F0C5F8102000F0C2F87F
:100A2000402000F0BFF8812000F0BCF8CF2000F09B
:100A3000B9F8A12000F0B6F8C82000F0B3F8A6205D
:100A400000F0B0F8A82000F0ADF83F2000F0AAF8C0
:100A5000D32000F0A7F8002000F0A4F8D52000F083
:100A6000A1F8802000F09EF8D92000F09BF8F1203A
:100A700000F098F8DA2000F095F8122000F092F8D3
:100A8000DB2000F08FF8402000F08CF8202000F0F0
:100A900089F8022000F086F88D2000F083F81420F9
:100AA00000F080F8A42000F07DF8A62000F07AF88D
:100AB000AF2000F077F8AF2000F074F80020FFF7C7
:100AC00084FF0021084600F05BF810BD2DE9F047D7
:100AD00006460F46904600250024A14631E018F84E
:100AE00009002038C5B2782E02DD0026781CC7B276
:100AF0003946304600F044F8002407E004EB0511C5
:100B0000134A505C00F05AF8601CC4B2082CF5DBA4
:100B1000781CC1B2304600F033F8002408E004EB42
:100B2000051108310A4A505C00F048F8601CC4B254
:100B3000082CF4DB06F10800C6B209F1010000F050
:100B4000FF0918F809000028C9D1BDE8F0870000A6
:100B5000161D000810B501210848FFF714FF642096
:100B6000FFF72DFF01210548FFF70BFF6420FFF77A
:100B700026FF01210148FFF706FF10BD000C0140D0
:100B800070B504460D4605F1B001C8B200F00AF890
:100B9000102141EA141000F005F804F00F0000F0F5
:100BA00001F870BD10B5044602210348FFF7E9FEC5
:100BB000204600F09DFA10BD000C014010B504461F
:100BC00002210348FFF7DFFE204600F091FA10BD36
:100BD000000C014070B505460C4625B1012D0FD023
:100BE000022D23D117E02CB14FF480711048FFF78C
:100BF000CAFE04E04FF480710D48FFF7C2FE15E015
:100C000024B180210A48FFF7BEFE03E08021084896
:100C1000FFF7B7FE0AE024B140210548FFF7B3FE15
:100C200003E040210248FFF7ACFE00BF00BF70BDEB
:100C30000010014008B50121102000F053F94FF4D5
:100C4000E070ADF8000003208DF8020010208DF850
:100C5000030069460848FFF700FE40210648FFF7F9
:100C600092FE80210448FFF78EFE4FF48071024807
:100C7000FFF789FE08BD00000010014030B50446B2
:100C80000D46042020712220E0702812A0706570AB
:100C90002046FFF78DFC207030BD00BFFEE7704797
:100CA00070B5002100230F22C47804B3154C2468CA
:100CB00004F4E064C4F5E064210AC1F10403CA400D
:100CC000447804FA03F184781440214309010E4C5E
:100CD0000678A155047804F01F050124AC4005787E
:100CE0006D11AD0005F1E025C5F8004109E004787B
:100CF00004F01F050124AC40044D0678761145F838
:100D0000264070BD0CED00E000E400E080E100E072
:100D100002490143024A1160704700000000FA05D1
:100D20000CED00E008B50121082000F0DBF80320FD
:100D3000ADF800008DF8020010208DF80300694620
:100D40000348FFF78AFD01210148FFF71CFE08BD9B
:100D5000000C01402DE9F04107460E46154631468C
:100D60003846FFF70DFF002407E00F4A02EB85111C
:100D7000085DFFF723FF601CC4B2102CF5DB701C6C
:100D8000C1B23846FFF7FCFE002409E06900491CA7
:100D9000054A02EB4111085DFFF710FF601CC4B269
:100DA000102CF3DBBDE8F081160000202DE9F041A6
:100DB00007460E46904600250024A8F12000C5B243
:100DC000782F02DD0027701CC6B231463846FFF787
:100DD000D7FE002407E004EB05110E4A505CFFF734
:100DE000EDFE601CC4B2082CF5DB701CC1B23846A5
:100DF000FFF7C6FE002408E004EB05110831054AA0
:100E0000505CFFF7DBFE601CC4B2082CF4DBBDE8CD
:100E1000F0810000161D00082DE9F05F07468946A5
:100E200090461D46DDF828B04FF0000A002428E067
:100E3000281B401EC1B20A2000F02EFEB8FBF0F0C5
:100E40000A21B0FBF1F201FB1206BAF1000F0BD13F
:100E5000681EA04208DD2EB9202249463846FFF719
:100E6000A5FF0CE04FF0010A06F13001CAB20821DB
:100E700001FB0471C8B24946FFF798FF00BF601C30
:100E8000C4B2AC42D4DBBDE8F09F704701460020FD
:100E9000034A506820F44040084350607047000007
:100EA0000010024029B1064A52690243044B5A61BC
:100EB00004E0034A52698243014B5A6170470000C3
:100EC0000010024029B1064AD2690243044BDA619C
:100ED00004E0034AD2698243014BDA6170470000A3
:100EE0000010024029B1064A92690243044B9A61FC
:100EF00004E0034A92698243014B9A617047000003
:100F00000010024030B500210022002400232D4DA6
:100F10006D6805F00C0121B1042905D0082923D101
:100F200005E0294D056022E0274D05601FE0254DB5
:100F30006D6805F47012234D6D6805F48034022548
:100F400005EB92421CB9214D554305600BE01D4D48
:100F50006D6805F400351DB11C4D5543056002E078
:100F6000194D5543056002E0174D056000BF00BFF5
:100F7000144D6D6805F0F0010909154D6B5C0568AD
:100F8000DD4045600F4D6D6805F4E061090A104DC4
:100F90006B5C4568DD4085600A4D6D6805F4605105
:100FA000C90A0B4D6B5C4568DD40C560054D6D6839
:100FB00005F44041890B074D6B5CC568B5FBF3F543
:100FC000056130BD0010024000127A0000093D00AA
:100FD000000000201000002010B5002404E0601C78
:100FE000C4B2012000F05CFC4FF480711148FFF79F
:100FF000BFFC012801D1322CF1DB002404E0601C8D
:10100000C4B2012000F04CFC4FF480710948FFF796
:10101000AFFC08B93C2CF2DB282000F041FC4FF477
:1010200080710448FFF7A4FC012800D110BD002006
:10103000FCE700000008014070B50025002406E030
:101040006006040EFFF7C8FF0443681CC5B2082DF4
:10105000F6DB204670BD2DE9FC4105460E461746DD
:1010600098460024FFF7ECFA012825D105E0FFF7A8
:10107000E3FF0DF80400601CC4B2052CF7DB9DF8FB
:1010800000009DF8011008449DF8021008449DF8E6
:10109000031008449DF80410884210D19DF8020006
:1010A00028709DF8030030709DF8000038709DF89E
:1010B000010088F8000002E00020BDE8FC8101206A
:1010C000FBE7000008B501211020FFF70BFF3020DF
:1010D000ADF8000003208DF8020010208DF8030009
:1010E00069460248FFF7B9FB08BD00000010014047
:1010F00070B50446002517E010210D48FFF741FCAC
:1011000004F0800020B120210948FFF73CFC03E0F7
:1011100020210748FFF735FC10210548FFF733FC75
:101120006006040E681CC5B2082DE5DB70BD00002A
:1011300000100140704710B500F002F810BD00002B
:101140000CB50020019000903348006840F48030D6
:101150003149086000BF3048006800F4003000905A
:101160000198401C0190009818B90198B0F5A06F43
:10117000F1D12948006800F4003010B1012000903E
:1011800001E0002000900098012843D12348006826
:1011900040F01000214908600846006820F0030074
:1011A00008600846006840F0020008601A4840687D
:1011B000194948600846406848600846406840F45D
:1011C000806048600846406820F47C10486008460B
:1011D000406840F4E81048600846006840F08070BD
:1011E000086000BF0C48006800F000700028F9D0CB
:1011F0000948406820F003000749486008464068F5
:1012000040F00200486000BF0348406800F00C0056
:101210000828F9D10CBD0000001002400020024057
:10122000704700004FF0E021096921F004014FF000
:10123000E0221161C21700EB5272C2F3C702074BE2
:101240001A701946097801EB4102C2EBC1114FF641
:10125000FF7202EAC101024A1180704716020020A3
:101260001802002010B51348006840F00100114931
:10127000086008464068104908400E494860084622
:1012800000680E4908400B4908600846006820F4D1
:10129000802008600846406820F4FE0048604FF453
:1012A0001F008860FFF747FF4FF0006004490860A7
:1012B00010BD0000001002400000FFF8FFFFF6FE26
:1012C00008ED00E00EB501210846FFF7FBFD41F6F1
:1012D0001F40ADF8000042F20F70ADF8040000208E
:1012E000ADF80200ADF8060069464FF0804000F00E
:1012F000BDF801221146900700F093F801218807FC
:1013000000F06CF80121880700F06EF80EBD0000B7
:1013100010B50121880700F073F8002850D0012192
:10132000880700F05EF827480068032190FBF1F27F
:1013300001FB120078B92448027824480178244837
:1013400000F0E6F82248FFF717F91E480068401C35
:101350001C4908602DE01B480068032190FBF1F256
:1013600001FB120001280DD11A4801781848FFF737
:1013700015FB1748FFF700F912480068401C114997
:10138000086016E00F480068032190FBF1F201FBB2
:10139000120002280DD11048008881B20C48FFF7D6
:1013A0006DFC0B48FFF7E8F806480068401C05494B
:1013B000086004480068FF2802D100200149086045
:1013C00010BD00002C020020260200202402002074
:1013D0001C0200202502002028020020CA430282AD
:1013E0007047CA430282704721B1028842F001026D
:1013F000028004E002884FF6FE731A4002807047B4
:1014000030B50246002000230024158A05EA0103B6
:10141000958905EA010413B10CB1012000E0002018
:1014200030BD1AB183890B43838102E083898B43EA
:101430008381704710B5FFF745FF00F001F810BD3C
:1014400008B54FF4A060FFF763FC1C208DF8000086
:1014500002208DF8010003208DF8020001208DF894
:1014600003006846FFF71CFC08BD0000002202884C
:101470001D4B98420ED01D4B98420BD0B0F1804FBF
:1014800008D01B4B984205D01A4B984202D01A4BF9
:10149000984204D14FF68F731A404B881A43174B6A
:1014A000984207D0164B984204D04FF6FF431A409B
:1014B000CB881A4302808B8883850B8803850A4B6F
:1014C00098420BD0094B984208D00E4B984205D059
:1014D0000D4B984202D00D4B984201D10B7A0386F6
:1014E0000123838270470000002C0140003401403A
:1014F0000004004000080040000C004000100040C4
:1015000000140040004001400044014000480140F8
:1015100070B504460E461546042020716020E07028
:10152000A67065702046FFF743F8207070BD08B5BF
:101530004FF4A060FFF7ECFB27208DF8000001209E
:101540008DF801008DF802008DF803006846FFF762
:10155000A7FB08BD10B525200321002807DA0A07DC
:10156000140E0C4A00F00F031B1FD45403E00A07AB
:10157000130E094A135400BF252000F01F02012159
:1015800091404209920002F1E022C2F8001100BF2E
:1015900010BD000018ED00E000E400E000B585B0EB
:1015A000012144F20500FFF79DFC4FF40070ADF8F7
:1015B000100003208DF8120018208DF8130004A9E4
:1015C0001948FFF74AF94FF48060ADF81000042085
:1015D0008DF8130004A91448FFF73FF94FF4E130E8
:1015E00000900020ADF80400ADF80600ADF808004A
:1015F0000C20ADF80A000020ADF80C0069460B483D
:1016000000F0A8F8012240F22551084800F07DF8CA
:101610000648008820F04000044908800121034862
:1016200000F030F805B000BD00080140003801406E
:1016300010B5002440F22551054800F03CF801287F
:1016400004D140F22551024800F00DF810BD000011
:101650000048004001F40072B2F5007F00D100BFE5
:10166000CA430280704710B50022002340F66A1476
:10167000A14200D100BF0A1201249440A3B2DC436E
:10168000048010BD21B1828942F40052828104E0BD
:1016900082894DF6FF731A4082817047024600200E
:1016A000B1F5007F00D100BF13880B400BB10120C2
:1016B00000E00020704770B502460024002300259A
:1016C000002040F66A16B14200D100BFC1F34215B6
:1016D00001F01F03012606FA03F3012D02D19689BA
:1016E000334006E0022D02D1168A334001E0968A8B
:1016F00033400C12012606FA04F41688344013B164
:101700000CB1012000E0002070BDF0B503460024BC
:1017100000260025002040F66A17B94200D100BF1C
:101720001846C1F3421401F01F06012707FA06F517
:10173000012C01D10C3004E0022C01D1103000E06A
:1017400014301AB107682F43076002E00768AF43FF
:101750000760F0BD2DE9F04786B005460E4600242F
:10176000A24600BFA1460027B08900B100BF2F46A6
:101770002C8A4CF6FF700440F08804432C82AC891C
:101780004EF6F3100440B08831890843718908434C
:101790000443AC81AC8A4FF6FF400440B089044357
:1017A000AC8201A8FFF7AEFB1F48874202D1DDF8EB
:1017B00010A001E0DDF80CA0A88900F4004040B1C1
:1017C0000AEBCA0000EB0A1031684900B0FBF1F8DF
:1017D00007E00AEBCA0000EB0A1031688900B0FB91
:1017E000F1F86420B8FBF0F004012009642101FB4A
:1017F0001089A88900F4004040B1322000EBC900F4
:10180000B0FBF1F000F00700044308E0322000EBE9
:1018100009106421B0FBF1F000F00F0004432C81AB
:1018200006B0BDE8F08700000038014010B5FFF7B2
:10183000B5FEFFF78FFE10BDC1F30802828070472E
:1018400000BFFEE702E008C8121F08C1002AFAD153
:1018500070477047002001E001C1121F002AFBD130
:101860007047000001460D4A12884A434FF0E023BA
:101870005A6100229A6101221A6100BF4FF0E022F2
:10188000106900F001021AB100F48032002AF5D08C
:1018900000224FF0E0231A619A617047180200207D
:1018A00001460D4A12784A434FF0E0235A61002264
:1018B0009A6101221A6100BF4FF0E022106900F026
:1018C00001021AB100F48032002AF5D000224FF054
:1018D000E0231A619A61704716020020002100205F
:1018E00005E0074A32F810201144421CD0B23228D9
:1018F000F7DB322291FBF2F2024B1A8070470000B4
:10190000380200201400002008B54820FFF78AFCA8
:10191000FFF78CFFFFF7D6FBFFF774F8FEF77AFCB2
:10192000FEF774FEFFF786F9FEF7ADFDFFF782FDC7
:101930001E20FFF797FFFF204E49C87188710020D5
:10194000487196E04C4B4D4A4D494E48FFF783FB9A
:10195000FFF71CF840F6FF71081A4B490860062291
:1019600000210846FFF7F6F9072200211020FFF7B3
:10197000F1F9002211462020FFF7ECF901220021A5
:101980003020FFF7E7F941A200213E20FFF79EF843
:101990001020022300903B48027800214A20FFF7E4
:1019A0003BFA3BA200215920FFF790F810200123B9
:1019B00000903348027800215D20FFF72DFA0622BF
:1019C00002210020FFF7C6F9072202211020FFF7AD
:1019D000C1F9022211462020FFF7BCF901220221A1
:1019E0003020FFF7B7F929A202213E20FFF76EF859
:1019F0001020022300902148027819464A20FFF760
:101A00000BFA24A202215B20FFF760F803220421D5
:101A10000020FFF79FF9042211461020FFF79AF9E2
:101A2000052204212020FFF795F90122042130200E
:101A3000FFF790F915A204213E20FFF747F8102088
:101A4000042300901048194602684A20FFF7E4F981
:101A50000D480068B0F5FA7F04DA00210846FFF768
:101A6000B9F803E001210020FFF7B4F8C820FFF720
:101A7000F9FE67E71C020020270200202502002053
:101A80002602002024020020280200203A00000044
:101A90002E0000002500000010B50246012000E0E5
:101AA00050430B1EA1F10104E1B2F9D110BD0000B9
:101AB00010B5044621460648FFF7BEFE00BF402190
:101AC0000348FFF7EBFD0128F9D1204610BD0000C7
:101AD0000048004070B506460C46254603E0705DA0
:101AE000FFF7E6FF6D1E002DF9DA204670BD0000FD
:101AF000000000000000002F0000000007000700A9
:101B000000147F147F1400242A7F2A1200626408C4
:101B10001323003649552250000005030000000041
:101B20001C224100000041221C000014083E081441
:101B30000008083E0808000000A06000000808082F
:101B40000808000060600000002010080402003E49
:101B50005149453E0000427F4000004261514946E4
:101B6000002141454B31001814127F1000274545D4
:101B70004539003C4A4949300001710905030036E6
:101B80004949493600064949291E000036360000F9
:101B900000005636000000081422410000141414FE
:101BA00014140000412214080002015109060032F9
:101BB0004959513E007C1211127C007F4949493637
:101BC000003E41414122007F4141221C007F4949A2
:101BD0004941007F09090901003E4149497A007FD6
:101BE0000808087F0000417F4100002040413F017C
:101BF000007F08142241007F40404040007F020CDB
:101C0000027F007F0408107F003E4141413E007F7B
:101C100009090906003E4151215E007F0919294644
:101C20000046494949310001017F0101003F404020
:101C3000403F001F2040201F003F4038403F0063CE
:101C400014081463000708700807006151494543F0
:101C500000007F41410000552A552A5500004141AE
:101C60007F000004020102040040404040400000A8
:101C700001020400002054545478007F4844443842
:101C800000384444442000384444487F00385454C9
:101C9000541800087E0901020018A4A4A47C007F47
:101CA000080404780000447D4000004080847D00EA
:101CB000007F102844000000417F4000007C041891
:101CC0000478007C0804047800384444443800FC5C
:101CD000242424180018242418FC007C0804040878
:101CE00000485454542000043F444020003C4040ED
:101CF000207C001C2040201C003C4030403C004424
:101D000028102844001CA0A0A07C004464544C442B
:101D1000141414141414000000000000000000004B
:101D2000000000000000000000F8000000000000BB
:101D300000333000000000100C06100C06000000FC
:101D400000000000000040C07840C0784000043F20
:101D500004043F040400007088FC083000000018F0
:101D600020FF211E0000F008F000E0180000002114
:101D70001C031E211E0000F00888700000001E21B8
:101D800023241927211010160E0000000000000067
:101D9000000000000000000000E018040200000045
:101DA00000071820400000020418E0000000004076
:101DB000201807000000404080F0804040000202F0
:101DC000010F01020200000000F00000000001010C
:101DD000011F01010100000000000000000080B0B0
:101DE0007000000000000000000000000000000182
:101DF00001010101010100000000000000000030AD
:101E00003000000000000000000080601804006046
:101E100018060100000000E010080810E000000FA4
:101E2000102020100F00001010F80000000000200B
:101E3000203F202000000070080808887000003053
:101E400028242221300000300888884830000018FB
:101E5000202020110E000000C02010F80000000714
:101E60000424243F240000F808888808080000198A
:101E7000212020110E0000E0108888180000000FBB
:101E8000112020110E0000380808C8380800000092
:101E9000003F000000000070880808887000001CE7
:101EA000222121221C0000E010080810E0000000A0
:101EB000312222110F00000000C0C000000000000D
:101EC0000030300000000000008000000000000032
:101ED0008060000000000000804020100800000129
:101EE00002040810200040404040404040000404EC
:101EF00004040404040000081020408000000020B6
:101F0000100804020100007048080808F0000000F2
:101F1000003036010000C030C828E810E000071883
:101F2000272423140B000000C038E0000000203CF0
:101F300023020227382008F8888888700000203F94
:101F4000202020110E00C0300808080838000718AB
:101F500020202010080008F808080810E000203FA2
:101F6000202020100F0008F88888E8081000203F83
:101F700020202320180008F88888E8081000203F57
:101F8000200003000000C0300808083800000718CF
:101F90002020221E020008F808000008F808203F50
:101FA000210101213F20000808F808080000002056
:101FB000203F2020000000000808F8080800C0802A
:101FC00080807F00000008F888C028180800203FA3
:101FD00020012638200008F8080000000000203FFB
:101FE00020202020300008F8F800F8F80800203FF2
:101FF000003F003F200008F830C00008F808203FEC
:10200000200007183F00E01008080810E0000F103B
:10201000202020100F0008F808080808F000203FD2
:10202000210101010000E01008080810E0000F186D
:10203000242438504F0008F8888888887000203F92
:102040002000030C30200070880808083800003891
:10205000202121221C00180808F808081800000098
:10206000203F2000000008F808000008F808001FC2
:10207000202020201F000878880000C838080000B1
:1020800007380E010000F80800F80008F800033CCB
:102090000700073C03000818688080681808203093
:1020A0002C03032C30200838C800C8380800000072
:1020B000203F2000000010080808C8380800203819
:1020C000262120201800000000FE0202020000006D
:1020D000007F40404000000C30C0000000000000C5
:1020E00000010638C00000020202FE0000000040AD
:1020F00040407F00000000000402020204000000D3
:1021000000000000000000000000000000008080CF
:1021100080808080808000020204000000000000B7
:102120000000000000000000808080800000001996
:10213000242222223F2008F8008080000000003F77
:10214000112020110E000000008080800000000E91
:10215000112020201100000000808088F800000E6F
:10216000112020103F200000808080800000001F90
:10217000222222221300008080F088888818002004
:10218000203F202000000000808080808000006BC5
:1021900094949493600008F8008080800000203FB1
:1021A000210000203F2000809898000000000020BF
:1021B000203F20200000000000809898000000C010
:1021C0008080807F000008F8000080808000203F31
:1021D00024022D302000000808F800000000002034
:1021E000203F202000008080808080808000203F71
:1021F00020003F20003F8080008080800000203F42
:10220000210000203F200000808080800000001F0F
:10221000202020201F00808000808000000080FFA0
:10222000A12020110E000000008080808000000EA0
:10223000112020A0FF8080808000808080002020EE
:102240003F2120000100000080808080800000335A
:10225000242424241900008080E0808000000000F5
:10226000001F202000008080000000808000001FF0
:10227000202020103F20808080000080808000018E
:102280000E300806010080800080008080800F30C2
:102290000C030C300F000080800080808000002044
:1022A000312E0E312000808080000080808080816F
:1022B0008E701806010000808080808080000021E0
:1022C000302C2221300000000000807C020200003F
:1022D0000000003F404000000000FF000000000040
:1022E0000000FF0000000002027C800000000040AF
:1022F000403F00000000000601010202040400004B
:10230000000000000000000028230008000000205A
:10231000380200008C0100082C240008380200203C
:102320006804000054180008412D01020304042031
:10233000090607080902040608251060028C2BFE16
:1023400092010213FE180A04047E01407E42427E7E
:10235000020413427E402809FC242424FC25262460
:102360000802110400101140308F80844C5525253F
:1023700025554C8080803980497F091780080B10D3
:102380004448507F40407F50484480080F104040F0
:10239000424458C0407F40C050484640203780806B
:1023A000402018071B3F400102127816FE424242AD
:1023B000FE00081242A29E82A2C2BE27806F0808B9
:1023C00028CF4B2FC80801101602E222223E08092E
:1023D00010809E9292F292929EE011000F11438221
:1023E000423E40474444447F444454E7180B100C99
:1023F000048414640506F404010311140C00101283
:10240000048484444724140C070C142444840416C4
:10241000FC848484FC2A10010412FF10101A3F1956
:0C242000223F0635010640807F000000CE
:0400000508000131BD
:00000001FF
