:020000040800F2
:1000000070070020DD010008510E00089F0D000858
:100010004D0E0008850B0008F512000800000000D6
:100020000000000000000000000000007D1000083B
:10003000890B000800000000530E00086911000839
:10004000F7010008F7010008F7010008F7010008B0
:10005000F7010008F70100088D0B0008AD0B000840
:10006000D10B0008F50B0008F7010008F7010008A4
:10007000F7010008F7010008F7010008F701000880
:10008000F7010008F7010008F7010008F701000870
:10009000F7010008F7010008F7010008F701000860
:1000A000F7010008F7010008F7010008F701000850
:1000B000CD110008F7010008F7010008F70100085A
:1000C000F7010008F7010008F7010008F701000830
:1000D000F70100080D120008F7010008F7010008F9
:1000E000F7010008F7010008F7010008F701000810
:1000F000F7010008F7010008F7010008F701000800
:10010000F7010008F7010008F7010008F7010008EF
:10011000F7010008F7010008F7010008F7010008DF
:10012000F7010008F7010008F7010008F7010008CF
:1001300000F002F800F042F80AA090E8000C8244B7
:100140008344AAF10107DA4501D100F037F8AFF294
:10015000090EBAE80F0013F0010F18BFFB1A43F0A5
:10016000010318471012000030120000103A24BF9B
:1001700078C878C1FAD8520724BF30C830C144BF0C
:1001800004680C607047000000230024002500264E
:10019000103A28BF78C1FBD8520728BF30C148BFEA
:1001A0000B6070471FB59DE8030000F0BDFA00F03A
:1001B00073F81FBD10B500F0D8F810BD00F03BF982
:1001C0001146FFF7EFFF01F0A9F800F053FA03B46E
:1001D000FFF7F0FF03BC00F039FC0000094880473E
:1001E00009480047FEE7FEE7FEE7FEE7FEE7FEE719
:1001F000FEE7FEE7FEE7FEE704480549054A064B31
:10020000704700006D1100083101000870010020E6
:100210007007002070030020700300200FB4044911
:1002200010B503AA029800F009F810BC5DF814FBA1
:10023000640000207047704770470000074B70B59E
:100240000D467B4400F011F80446284600F020F8E3
:1002500010B14FF0FF3070BD204670BDB3100000EC
:1002600001694A1C02610878704700B58FB0CDE97A
:1002700001310021059105497944CDE9031011466A
:10028000684600F024F90FB000BD0000E5FFFFFF55
:10029000007B00F08000704710B54248542100F008
:1002A000F9F94148542100F0F5F94048542100F093
:1002B000F1F93F493B483C4A3F4B08603D490A60E1
:1002C0003A491960531C0365481C106501200865F4
:1002D0003B48344A39A1784400F030F920B9384815
:1002E00078440A3800F0CFF937482F4A35A17844CE
:1002F00000F024F920B9344878440A3800F0C3F9F2
:1003000032482A4A2FA1784400F018F920B92F4822
:1003100078440A3800F0B7F940232248DC00002175
:10032000224600F0E8F820B125487844543800F01F
:10033000AAF91D4822464023002100F0DCF820B134
:1003400021487844543800F09EF91848224610237A
:10035000002100F0D0F8002806D01C487844BDE801
:100360001040563800F08FB910BD104870B5006DC0
:1003700020F001040B4800F057F90B4800F054F945
:100380000A4800F051F909E0206D20F001052046EF
:1003900000F04AF9204600F073F82C46002CF3D107
:1003A00070BD00001000002064000020B800002094
:1003B00004000020080000200C0000207200000053
:1003C0008E100000770000007A1000006610000018
:1003D0000EB5CDE9000100F019FB0290694601203D
:1003E000ABBE0EBD08B5694600900220ABBE08BD8D
:1003F0001FB58DE8070069460520ABBE04B010BDEF
:100400001FB58DE80F0069460620ABBEF6E708B5BC
:10041000694600900920ABBE08BD1CB5CDE90001BE
:1004200069460A20ABBE1CBD704708B569460090FE
:100430000C20ABBE08BD754600F054F9AE46050071
:100440006946534620F00700854618B020B5FFF7EF
:10045000D3FEBDE820404FF000064FF000074FF0FC
:1004600000084FF0000B21F00701AC46ACE8C009D2
:10047000ACE8C009ACE8C009ACE8C0098D467047DB
:1004800070B50446051F00F033F90068002C14BF56
:10049000446870BD002C18BFAC423CBF2046646865
:1004A000F8D301680A18AA4218BF456003D12A6828
:1004B00005461144016028684119A1421CBF6C60C7
:1004C00070BD6168696021680844286070BD2DE9CD
:1004D000F04106460024D6E90170F56880463046B2
:1004E00003E04146B847641C3046A8470028F8D1CD
:1004F0002046BDE8F08170B5C468A50713D0650239
:1005000011D4B2F5807F09D0B2F5007F06D0B2F5E4
:10051000806F08D1012300F1240106E05D1E6FF019
:100520007F46B54201D3012070BD0161C3614160C6
:1005300024F470611143C160002070BD2DE9F041C9
:100540000C4607461646104600F06EF82078611CEF
:1005500061280AD0722802D077283CD102E0012518
:10056000002405E00225042402E0082448F20205E4
:1005700011F8010B2B2806D0622809D011F8010CC4
:1005800074280AD00BE045F0030544F00204EFE7BD
:1005900045F0040544F00104EAE744F0100438464D
:1005A0002146FFF715FF411C15D000213161716014
:1005B0004FF40071F560F1617061200704D5304699
:1005C0000222002100F00EF9306D40F0010030658C
:1005D0003046BDE8F0810020FBE72DE9F0410D46F3
:1005E0000646104C206DC10704D0410804D020F00D
:1005F0000104F7E722460EE0542000F0C4F807009B
:100600000ED0206D47F00101084354212065384683
:1006100000F040F83A4629463046BDE8F0418DE703
:100620000020D6E7100000202DE9F04704464FF0E7
:1006300000094FF0FF37C568D4E90486A80707D042
:10064000204600F07FF93046FFF7CCFE002802DAA2
:100650003846BDE8F087280502D54046FFF710FF71
:100660004C21204600F016F8206D20F00100206596
:100670004846EEE710B50446AFF300802046BDE8DB
:100680001040FFF7A4BD10B500F0A6F9BDE810407A
:1006900000F09CB94FF0000200B513469446964610
:1006A000203922BFA0E80C50A0E80C50B1F1200185
:1006B000BFF4F7AF090728BFA0E80C5048BF0CC033
:1006C0005DF804EB890028BF40F8042B08BF704791
:1006D00048BF20F8022B11F0804F18BF00F8012B03
:1006E00070470000004870470C0100207047000070
:1006F00000487047140100207047704770477047EA
:1007000038B504460A4600206946AFF30080002849
:1007100008BF38BD02460099204600F0A4F9012028
:1007200038BD012000F0F3B9F8B5AFF300800546FD
:1007300000200C46102000BF0646A819A0420DD983
:10074000324669460020AFF30080070008BF00F082
:10075000DEF90098A04218BF0546C419FFF7C8FF8C
:1007600005600746F01D20F007004619284600F0F6
:1007700073F9B44208BFF8BDA21B31463868BDE822
:10078000F84000F070B970B50646FFF7B1FF056894
:1007900006F10B0020F00704B4429CBF002070BD9E
:1007A0002B466A68BAB11068A04210D304F1080160
:1007B00088423CBF5068586007D3516810194160A7
:1007C0001168091B016058601460101D70BD13464C
:1007D0005268002AE7D121462846FFF791FF0028FA
:1007E000DED170BD2DE9F041044616460D4647693D
:1007F000007B80072ED03846FFF709FE50BB3EB382
:10080000012E02D0022E25D104E0204600F045F949
:1008100005441DE03846FFF708FEE168002841F076
:100820001001E16005DA204600F058F80120BDE82B
:10083000F081C9030BD56268E16A914200D8114684
:10084000A26911442269891A814200DD08460544E3
:10085000002D01DA0220EAE7E16A6068E26881427D
:1008600006D29103E06203D522F4003141F0100278
:10087000A6690027AE4213DCE16A814201D90B462A
:1008800000E0034603EB060C2369ACEB030CAC451C
:1008900006DD814201D98C4600E084469C4505D1A5
:1008A000A760276042F02000A5620DE0AD1BE6695D
:1008B000AE1B8142A66000D90846C01A281A2060E3
:1008C0005819606022F0200003490840E0600020D1
:1008D00084F84870ABE70000BFCFD7FFC16821F4B0
:1008E000001141F08001C16000218160016070470A
:1008F0002DE9F047814614460E464FF0FF38324846
:10090000D5685769054209D03846A169FFF785FDCA
:10091000002811DB2C48C0430540E5602B463246D9
:1009200049463846FFF764FDA16920F00042B21A3B
:1009300011440028A16103D02046FFF7CFFF4046B5
:10094000BDE8F08770B504460569C06A61688842F1
:1009500000D80846E16821F42011E160C90312D5EE
:10096000A84208D02246411B2846FFF7C1FF10B11C
:100970004FF0FF3070BD0020E562C4E90150E0682F
:1009800020F48030E060002070BD10B50446C068DF
:1009900020F02000E060A16AA06988420DD02046C6
:1009A000FFF7D0FFE06820F4405040F01000E06016
:1009B000A06AA0612069E062606044F24001E068E2
:1009C0008843E06010BD000010000200002801D044
:1009D00000F03CB87047000010B5014602A000F0DE
:1009E0007DF8012010BD0000534947525452454440
:1009F0003A2052656469726563743A2063616E27B8
:100A000074206F70656E3A200000000010B5431C22
:100A100002E010F8011B71B18107FAD14FF00132E9
:100A200002C88C1A8C4314EAC211F9D0C01A0A0603
:100A300003D0C01E10BDC01A10BD0A0401D0801E14
:100A400010BD0902FCD0401E10BD00000149182055
:100A5000ABBEFEE72600020000210160C0E90110E4
:100A6000704710207047034640688C46002818BF26
:100A700088423CBF03464068F8D31868184488424F
:100A800007D00CF1030020F00700001D411A521A94
:100A90000146081D0A60FFF7F3BC10B50146C268A5
:100AA000900703D0900607D5886A0AE000F03EF868
:100AB00001210160881E10BD8B69486818440B69CC
:100AC000C01A91F848301BB191F84910401A10BD76
:100AD0001103FCD50028FADD401E10BD70B5054697
:100AE0000C460A2000E06D1C00F018F835B128789B
:100AF0000028F8D102E0641C00F010F814B120784E
:100B00000028F8D1BDE870400A2000F007B810B501
:100B100000F010F8BDE81040FFF758BF08B569466F
:100B20008DF800000320ABBE08BD000000487047F0
:100B30000C01002010B5012805D0002103A0FFF70B
:100B4000CDFF012010BD09A1F8E70000534947522D
:100B5000544D454D3A204F7574206F66206865618D
:100B600070206D656D6F7279000000003A20486555
:100B70006170206D656D6F727920636F7272757030
:100B80007465640000BFFEE77047000010B50120E7
:100B900000F048F8012804D100F03EF801A0FFF76A
:100BA0003DFB10BD45585449300D0A0010B50220D8
:100BB00000F038F8012805D1022000F02DF802A03D
:100BC000FFF72CFB10BD000045585449310D0A00B9
:100BD00010B5042000F026F8012805D1042000F00B
:100BE0001BF802A0FFF71AFB10BD0000455854493E
:100BF000320D0A0010B5082000F014F8012805D1C4
:100C0000082000F009F802A0FFF708FB10BD000063
:100C100045585449330D0A000149086070470000E7
:100C200014040140014600200022074B1B6803EA20
:100C30000102054B14331B680B4013B10AB10120AC
:100C400000E00020704700000004014005490968E9
:100C500021F01001034A1160114609680143116037
:100C6000704700000020024001460020034A10683F
:100C700000F0380008431060704700000020024078
:100C80002DE9F04102460025002600200023002423
:100C9000002791F803C00CF00F0591F803C00CF089
:100CA000100CBCF1000F03D091F802C04CEA05050E
:100CB00091F800C0BCF1000F31D0146800202BE087
:100CC0004FF0010C0CFA00F3B1F800C00CEA030677
:100CD0009E4220D183004FF00F0C0CFA03F7BC4367
:100CE00005FA03FC4CEA040491F803C0BCF1280F98
:100CF00006D14FF0010C0CFA00FCC2F814C00AE057
:100D000091F803C0BCF1480F05D14FF0010C0CFA6B
:100D100000FCC2F810C0401C0828D1D31460B1F800
:100D200000C0BCF1FF0F34DD546800202EE000F15C
:100D3000080C4FF0010808FA0CF3B1F800C00CEAF7
:100D400003069E4221D183004FF00F0C0CFA03F7EB
:100D5000BC4305FA03FC4CEA040491F803C0BCF15F
:100D6000280F05D100F1080C08FA0CF8C2F814801D
:100D700091F803C0BCF1480F07D100F1080C4FF007
:100D8000010808FA0CF8C2F81080401C0828CED3DD
:100D90005460BDE8F081416170470161704700BF58
:100DA000FEE7000070B505460C4625B1012D0FD0B9
:100DB000022D23D117E02CB14FF480711048FFF7BA
:100DC000ECFF04E04FF480710D48FFF7E4FF15E0FD
:100DD00024B180210A48FFF7E0FF03E080210848A2
:100DE000FFF7D9FF0AE024B140210548FFF7D5FFFE
:100DF00003E040210248FFF7CEFF00BF00BF70BDF7
:100E00000010014008B50121102000F023F84FF434
:100E1000E070ADF8000003208DF8020010208DF87E
:100E2000030069460848FFF72BFF40210648FFF7FB
:100E3000B4FF80210448FFF7B0FF4FF480710248EF
:100E4000FFF7ABFF08BD00000010014000BFFEE748
:100E50007047704729B1064A92690243044B9A6170
:100E600004E0034A92698243014B9A617047000093
:100E70000010024010B500F02FF84FF4803000F061
:100E800083F800F0DFF80446012C24D11020FFF78E
:100E9000DDFE0220FFF7E8FE002000F069F80020E8
:100EA00000F0A4F8A00200F095F84FF4E01120043F
:100EB00000F0AEF8012000F0A5F800BF392000F0E6
:100EC00031F80028FAD0022000F0B0F800BF00F09E
:100ED00047F80828FBD110BD0F48006840F001001A
:100EE0000D490860084640680C4908400A494860B6
:100EF000084600680A490840074908600846006833
:100F000020F4802008600846406820F4FE00486015
:100F10004FF41F0088607047001002400000FFF887
:100F2000FFFFF6FE10B501460022002300204A1103
:100F3000012A02D1094C236806E0022A02D1074C9B
:100F4000236A01E0054C636A01F01F02012494400A
:100F50001C400CB1012000E0002010BD0010024038
:100F60000248406800F00C0070470000001002408A
:100F700001460020034A506820F0F000084350600A
:100F800070470000001002401149096821F48031C7
:100F90000F4A11601146096821F480211160B0F5F3
:100FA000803F03D0B0F5802F0ED106E008490968D4
:100FB00041F48031064A116007E00549096841F4AF
:100FC000A021034A116000E000BF00BF704700008D
:100FD0000010024001460020034A506820F4E060FF
:100FE0000843506070470000001002400146002096
:100FF000034A506820F4605040EAC10050607047D6
:10100000001002400149086670470000000042429B
:1010100002460020044B586820F47C1042EA010389
:101020001843014B586070470010024001460020F1
:10103000034A506820F003000843506070470000E6
:101040000010024038B5002000900024002500BFA9
:101050003120FFF767FF05460098401C009000987C
:10106000B0F5A06F01D0002DF2D03120FFF75AFF6C
:1010700008B1012400E00024204638BD704710B5B7
:1010800000F002F810BD00000CB5002001900090A7
:101090003348006840F480303149086000BF304870
:1010A000006800F4003000900198401C0190009806
:1010B00018B90198B0F5A06FF1D12948006800F483
:1010C000003010B10120009001E000200090009855
:1010D000012843D12348006840F0100021490860EE
:1010E0000846006820F0030008600846006840F0E9
:1010F000020008601A48406819494860084640687C
:1011000048600846406840F480604860084640688F
:1011100020F47C1048600846406840F4E8104860BD
:101120000846006840F08070086000BF0C48006806
:1011300000F000700028F9D00948406820F0030052
:10114000074948600846406840F00200486000BF18
:101150000348406800F00C000828F9D10CBD0000DD
:1011600000100240002002407047000010B51348F4
:10117000006840F0010011490860084640681049C5
:1011800008400E494860084600680E4908400B496F
:1011900008600846006820F480200860084640681F
:1011A00020F4FE0048604FF41F008860FFF767FFDF
:1011B0004FF000600449086010BD000000100240BC
:1011C0000000FFF8FFFFF6FE08ED00E010B501217A
:1011D000880700F00AF8012803D10121800700F0F8
:1011E00001F810BDCA430282704730B502460020A4
:1011F00000230024158A05EA0103958905EA010404
:1012000013B10CB1012000E0002030BD10B540F258
:1012100025510B4800F040F8012810D140F225512B
:10122000074800F01DF80648001D008805490870B1
:101230000846007800F086F803A0FEF7EFFF10BD27
:1012400000380140000000200D0A5553415254312E
:101250005F49525148616E646C65720D0A0000006E
:1012600010B50022002340F66A14A14200D100BF4D
:101270000A1201249440A3B2DC43048010BD02464C
:101280000020B1F5007F00D100BF13880B400BB1E7
:10129000012000E00020704770B5024600240023C2
:1012A0000025002040F66A16B14200D100BFC1F30C
:1012B000421501F01F03012606FA03F3012D02D1A6
:1012C0009689334006E0022D02D1168A334001E0B0
:1012D000968A33400C12012606FA04F4168834402C
:1012E00013B10CB1012000E0002070BDC1F3080271
:1012F0008280704700BFFEE770B504460D46E1B23C
:101300000548FFF7F3FF00BF40210348FFF7B7FF91
:101310000028F9D0204670BD0038014000BF00BF52
:1013200000BFFFF7D9FDFFF7A5FDFFF76BFD00211B
:101330000220FFF737FD03E000210846FFF732FDEA
:10134000FAE7000010B5044621460648FFF7CEFF35
:1013500000BF40210348FFF792FF0128F9D1204642
:1013600010BD0000003801403A7474003A747400F3
:101370003A7474009413000800000020100000006C
:101380006C010008A4130008100000206007000092
:1013900088010008000000000000000000000000BC
:0413A0000000000049
:0400000508000131BD
:00000001FF
