:020000040800F2
:10000000F0070020FD0100089923000801220008E4
:1000100095230008C31D0008552C000800000000AF
:100020000000000000000000000000007927000828
:100030009D1F000800000000D1230008652800086B
:10004000170200081702000817020008170200082C
:100050001702000817020008A11F0008C11F0008AE
:10006000E51F000809200008170200081702000811
:1000700017020008170200081702000817020008FC
:1000800017020008170200081702000817020008EC
:1000900017020008170200081702000817020008DC
:1000A00017020008170200081702000817020008CC
:1000B00009290008170200081702000817020008A3
:1000C00017020008170200081702000817020008AC
:1000D00017020008252A0008170200081702000866
:1000E000170200081702000817020008170200088C
:1000F000170200081702000817020008170200087C
:10010000170200081702000817020008170200086B
:10011000170200081702000817020008170200085B
:10012000170200081702000817020008170200084B
:1001300000F002F800F052F80AA090E8000C8244A7
:100140008344AAF10107DA4501D100F047F8AFF284
:10015000090EBAE80F0013F0010F18BFFB1A43F0A5
:10016000010318479C300000BC300000103A24BF47
:1001700078C878C1FAD8520724BF30C830C144BF0C
:1001800004680C607047000000230024002500264E
:10019000103A28BF78C1FBD8520728BF30C148BFEA
:1001A0000B607047662902F0D987642900F08680C9
:1001B000002070471FB59DE8030000F0C1FE00F06D
:1001C00035FB04000020002102F0F8FDE06000F0A3
:1001D00041FC1FBD10B500F0A6FC10BD00F00EFDE7
:1001E0001146FFF7E7FF02F093FD00F013FE03B4A2
:1001F000FFF7F0FF03BC01F035F800000948804725
:1002000009480047FEE7FEE7FEE7FEE7FEE7FEE7F8
:10021000FEE7FEE7FEE7FEE704480549054A064B10
:1002200070470000A928000831010008F0010020F3
:10023000F0070020F0030020F00300200FB4044971
:1002400010B503AA029800F0DFFA10BC5DF814FBA9
:10025000E40000202DE9F0410E4604460020206213
:100260002046E168884730B3252805D0D4E901212C
:100270009047206A401CF2E7E16820460027884743
:10028000050018D0A5F14100192802D820354FF4F7
:1002900000673246294620462760FFF783FF40B1BA
:1002A000012804D0F61D26F007060836D8E7361DCB
:1002B000D6E72846DAE7206ABDE8F0812DE9F0416B
:1002C0000646002410687529314616A510D0AFF3F4
:1002D0000080002802DA404213A507E031688A074F
:1002E00001D512A502E0490704D511A5012401E0BA
:1002F000AFF3008000210A2206F1240709E0B0FBD9
:10030000F2FCB0FBF2F302FB1C00303078541846CC
:10031000491C0028F3D123462A463046BDE8F04167
:1003200000F00BB8000000002D0000002B000000C2
:10033000200000007047704770472DE9F0470D46D8
:1003400099469246044600F124080168880604D5BF
:10035000E06921F01001216000E00120A84201DDE8
:10036000471B00E00027A1697A1902EB0900081A6F
:10037000A0612078C00602D42046AFF3008000269A
:1003800008E0D4E901211AF806009047206A401CD1
:10039000761C20624E45F4DB2078C0060AD5204644
:1003A000AFF3008006E0D4E9012130209047206AB5
:1003B000401C2062381EA7F10107F4DC07E0D4E9F5
:1003C000012118F805009047206A401C2062281E71
:1003D000A5F10105F3DC2046AFF30080207800068C
:1003E00002D50220BDE8F0870120FBE770472DE928
:1003F000FF4F0C461E464FF0FF378BB0D2E900018D
:10040000DDF860800A908A46C1F30A5505B93D4679
:10041000002108464FF00000BAF1000F00F4400040
:1004200005DA00EB80004FF4400101EA50004FEA8A
:100430009059B9F1010F00DDB9460A9850EA4A0017
:100440000ED044F61050A5F2FF3545432F14B8F1F5
:10045000000F1ED07542291E1EDDC9F100021CE0EE
:10046000B8F1010F4FF0000001D0302103E0F2435A
:1004700005E02154401CB042FBDB30460022002145
:1004800021540B99C1F80880C1E900200FB0BDE8E4
:10049000F08FBD1B6D1CDEE74A4600DA694206A8F4
:1004A00000F066FA06AB93E8070003AB83E80700A9
:1004B00050460A9900F072FF8DE80700A0F5005041
:1004C0001F3800900398002D09DD42F21F014A46B3
:1004D000084403A90390684601F0D1F908E0A0F5AB
:1004E00000504A461F3803A90390684601F0DBF923
:1004F0008DE807000004000C03D04FF0FF304108E6
:1005000000E01046B8F1000F03D00022009215461B
:100510001EE0751E05D400F08DF9303262556D1E57
:10052000F9D5B3460122084302D000227F1C04E023
:100530002078302801D100227F1E002A099786D01A
:100540001DE0112D07DA00F075F9303262556D1C8F
:1005500050EA0102F5D1084302D00098C8B10EE07C
:100560000021681E05E0235C625C63542254401E37
:10057000491C8142F7DBAB46A81B401E09900020B6
:1005800004F80B000B98099AC0F80880C0E9002B0A
:100590007CE711264FF0000859E72DE9F04F884617
:1005A0000446D21D22F0070191B0D1E90001CDE946
:1005B0000A0102F051FB02460B98C00F01D02D201A
:1005C00007E02068810701D52B2002E0202101EA05
:1005D000C000032A099001D0072A05DB03464146E3
:1005E000204600F085F90BE12078800601D5E0690E
:1005F00000E00620B8F1650F814606D0B8F1660F1D
:1006000018D0B8F1670F70D131E00020B9F1110FA7
:10061000009001DB112301E009F101030AAA01A9FD
:100620000CA8FFF7E4FEDDE90C70002609F10105D6
:10063000834647E001204B4600904FF000470AAA4E
:1006400001A90CA8FFF7D3FEDDE90DB00C995D46BA
:10065000002610B909F101000D18B9EB050003D40B
:10066000C0F1FF3609F10105A5EB09002BE0B9F156
:10067000010F01DA4FF001090020B9F1110F0090CC
:10068000484601DD112300E003460AAA01A90CA88F
:10069000FFF7ADFEDDE90C704D460026834620785D
:1006A00000070AD4AB4500DA5D4601A8012D04DD40
:1006B000411911F8011C302907D04F4502DA17F112
:1006C000040F04DA012082460FE06D1EEEE7002FD2
:1006D00002DCED1B3E4403E0781CA84200DD7D1CDB
:1006E000B81B00F1010A4FF000472078000703D43F
:1006F000AA4501DB4FF0FF3A0021B7F1004F0DF1A1
:1007000043088DF8431024D002202B23002F01DA58
:100710007F422D230A21021EA0F1010000DC5FB1FF
:1007200097FBF1FC97FBF1F201FB1C7C17460CF1E7
:10073000300C08F801CDEEE7A8F101000370218824
:10074000090501D5452100E06521A0F1010800F867
:10075000011C09980FA9A1EB0807FF1D00B101209A
:10076000411901EBEA70A1693844081A401EA061E2
:100770002078C00602D42046AFF30080099828B143
:10078000D4E901219047206A401C20622078C006ED
:1007900022D52046AFF300801EE0002E04DBB345D7
:1007A00002DD01A8805D00E03020D4E901219047FE
:1007B000206A401C2062761CAAF101005FEA000A50
:1007C0000AD100F033F8C0680168405CD4E9012127
:1007D0009047206A401C2062281EA5F10105DCDC40
:1007E00007E0D4E9012118F8010B9047206A401C6A
:1007F0002062381EA7F10107F3DC2046AFF300802A
:10080000032011B043E60000074B70B50D467B4452
:1008100000F05BF80446284600F018F910B14FF0DC
:10082000FF3070BD204670BDDB24000000487047DB
:10083000AC01002030B5B0F10A024FEA900E71F120
:1008400000034EEA817EB0EB0E0061EB91014FEAAE
:10085000101E4EEA017E10EB0E0041EB11114FEA23
:10086000102E4EEA016E10EB0E0041EB11214FEA03
:10087000104E4EEA014E10EB0E0041EB11414018B4
:1008800041F100014FEAD00040EA41704FEAD10146
:1008900010EB80054FEA810444EA907444EB0104B4
:1008A0006D1944EB0404521BA3414FF0000348BFF1
:1008B0000A3200D530BD401C41F1000130BD0000BE
:1008C00001694A1C02610878704700B58FB0CDE914
:1008D00001310021059105497944CDE90310114604
:1008E0006846FFF7B7FC0FB000BD0000E5FFFFFF53
:1008F0002DE9F0411F46044603260168072A01F44A
:10090000006004DB08B116A505E016A503E008B1F8
:1009100015A500E015A521F010002060A069C01EFB
:10092000A0610FB1401EA0612046AFF300804FB11F
:10093000D4E9012138469047206A401C2062C01C3F
:10094000206206E0206AFAE7D4E9012115F8010BDC
:100950009047761EF8D22046AFF30080BDE8F081C4
:100960004E414E006E616E00494E4600696E660053
:100970002DE9F047814616468AB0334878440DC8C1
:100980008DE80D0030487844801C03AC0DC884E825
:100990000D0041F69B300844372190FBF1F290FBAB
:1009A000F1F5A5F1800501FB12041B3C02D5644260
:1009B000012000E00020DFF890A080460027FA44E4
:1009C000AAF1BE0A0DE0E00709D03246684607EBFF
:1009D00047010AEB810100F066FF8DE80700641013
:1009E0007F1C002CEFD1184F7F44AC3F18E0E80784
:1009F00014D007EB04100DF1180A90E80E008AE8F5
:100A00000E00C068F04201D198190890324606A93C
:100A100003A800F048FF03AB83E807006D10641CD7
:100A2000002DE4D132466946B8F1000F03A802D088
:100A300000F025FF01E000F036FFC9E90001C9F828
:100A400008200AB0BDE8F0875C280000007B00F0B9
:100A50008000704710B54248542100F0EBF941483E
:100A6000542100F0E7F94048542100F0E3F93F49F0
:100A70003B483C4A3F4B08603D490A603A4919608F
:100A8000531C0365481C1065012008653B48344A27
:100A900039A1784400F022F920B9384878440A385E
:100AA00000F0C1F937482F4A35A1784400F016F913
:100AB00020B9344878440A3800F0B5F932482A4A57
:100AC0002FA1784400F00AF920B92F4878440A3859
:100AD00000F0A9F940232248DC000021224600F062
:100AE000D9F820B125487844543800F09CF91D48C5
:100AF00022464023002100F0CDF820B1214878445F
:100B0000543800F090F9184822461023002100F0D4
:100B1000C1F8002806D01C487844BDE8104056387B
:100B200000F081B910BD104870B5006D20F00104CF
:100B30000B4800F049F90B4800F046F90A4800F06C
:100B400043F909E0206D20F00105204600F03CF952
:100B5000204600F078F82C46002CF3D170BD000040
:100B600090000020E4000020380100202000002038
:100B70002400002028000020720000005E270000F2
:100B8000770000004A270000362700000EB5CDE9A7
:100B9000000100F047FB029069460120ABBE0EBD8C
:100BA00008B5694600900220ABBE08BD1FB58DE8B0
:100BB000070069460520ABBE04B010BD1FB58DE827
:100BC0000F0069460620ABBEF6E708B569460090FF
:100BD0000920ABBE08BD1CB5CDE9000169460A205D
:100BE000ABBE1CBD704708B5694600900C20ABBE7B
:100BF00008BD0000004870478C0100207546FFF7D3
:100C0000F9FFAE4605006946534620F007008546C9
:100C100018B020B5FFF700FBBDE820404FF00006FC
:100C20004FF000074FF000084FF0000B21F00701D4
:100C3000AC46ACE8C009ACE8C009ACE8C009ACE817
:100C4000C0098D46704770B50446051F00F05CF979
:100C50000068002C14BF446870BD002C18BFAC4263
:100C60003CBF20466468F8D301680A18AA4218BF3E
:100C7000456003D12A68054611440160286841197E
:100C8000A1421CBF6C6070BD616869602168084446
:100C9000286070BD70B5C468A50713D0650211D473
:100CA000B2F5807F09D0B2F5007F06D0B2F5806F33
:100CB00008D1012300F1240106E05D1E6FF07F469C
:100CC000B54201D3012070BD0161C361416024F4CC
:100CD00070611143C160002070BD00002DE9F0413A
:100CE0000C4607461646104600F06EF82078611C48
:100CF00061280AD0722802D077283CD102E0012571
:100D0000002405E00225042402E0082448F202053C
:100D100011F8010B2B2806D0622809D011F8010C1C
:100D200074280AD00BE045F0030544F00204EFE715
:100D300045F0040544F00104EAE744F010043846A5
:100D40002146FFF723FF411C15D00021316171605E
:100D50004FF40071F560F1617061200704D53046F1
:100D60000222002100F04AF9306D40F001003065A8
:100D70003046BDE8F0810020FBE72DE9F0410D464B
:100D80000646104C206DC10704D0410804D020F065
:100D90000104F7E722460EE0542000F000F90700B6
:100DA0000ED0206D47F001010843542120653846DC
:100DB00000F040F83A4629463046BDE8F0418DE75C
:100DC0000020D6E7900000202DE9F04704464FF0C0
:100DD00000094FF0FF37C568D4E90486A80707D09B
:100DE000204600F0BBF93046FFF7DAFE002802DAB1
:100DF0003846BDE8F087280502D54046FFF723FFB7
:100E00004C21204600F016F8206D20F001002065EE
:100E10004846EEE710B50446AFF300802046BDE833
:100E20001040FFF7E4B910B500F0E2F9BDE810405A
:100E300000F0D8B94FF0000200B51346944696462C
:100E4000203922BFA0E80C50A0E80C50B1F12001DD
:100E5000BFF4F7AF090728BFA0E80C5048BF0CC08B
:100E60005DF804EB890028BF40F8042B08BF7047E9
:100E700048BF20F8022B11F0804F18BF00F8012B5B
:100E8000704700004FF0013C50F8042B51F8043B30
:100E90009A4221D1A2EB0C03934313EACC1317D14E
:100EA00050F8042B51F8043B9A4215D1A2EB0C03E5
:100EB000934313EACC130BD150F8042B51F8043BA5
:100EC0009A4209D1A2EB0C03934313EACC13DBD073
:100ED0004FF00000704700BFD01A01BAB1FA81F19B
:100EE00001F0180122FA01F0CB40C1F12001DBB280
:100EF000C0B2C01A2CFA01F3D11A914311EAC311FE
:100F0000E6D1704770470000004870479401002008
:100F1000704770477047704738B504460A4600204E
:100F20006946AFF30080002808BF38BD024600992B
:100F3000204600F0A4F9012038BD012000F0F3B9EB
:100F4000F8B5AFF30080054600200C46102000BF26
:100F50000646A819A0420DD9324669460020AFF3D3
:100F60000080070008BF00F0DEF90098A04218BF1B
:100F70000546C419FFF7C8FF05600746F01D20F0BD
:100F800007004619284600F073F9B44208BFF8BDBF
:100F9000A21B31463868BDE8F84000F070B970B562
:100FA0000646FFF7B1FF056806F10B0020F00704C5
:100FB000B4429CBF002070BD2B466A68BAB110686D
:100FC000A04210D304F1080188423CBF5068586029
:100FD00007D35168101941601168091B01605860FE
:100FE0001460101D70BD13465268002AE7D12146D7
:100FF0002846FFF791FF0028DED170BD2DE9F041B2
:10100000044616460D464769007B80072ED03846B9
:10101000FFF7DBFD50BB3EB3012E02D0022E25D1DF
:1010200004E0204600F045F905441DE03846FFF78E
:10103000DAFDE168002841F01001E16005DA2046A0
:1010400000F058F80120BDE8F081C9030BD56268B3
:10105000E16A914200D81146A26911442269891AB5
:10106000814200DD08460544002D01DA0220EAE74E
:10107000E16A6068E268814206D29103E06203D5CA
:1010800022F4003141F01002A6690027AE4213DCC1
:10109000E16A814201D90B4600E0034603EB060CEE
:1010A0002369ACEB030CAC4506DD814201D98C46CB
:1010B00000E084469C4505D1A760276042F02000EF
:1010C000A5620DE0AD1BE669AE1B8142A66000D9AA
:1010D0000846C01A281A20605819606022F02000C3
:1010E00003490840E060002084F84870ABE7000046
:1010F000BFCFD7FFC16821F4001141F08001C1606A
:1011000000218160016070472DE9F0478146144657
:101110000E464FF0FF383248D5685769054209D06E
:101120003846A169FFF757FD002811DB2C48C04362
:101130000540E5602B46324649463846FFF736FD06
:10114000A16920F00042B21A11440028A16103D025
:101150002046FFF7CFFF4046BDE8F08770B5044654
:101160000569C06A6168884200D80846E16821F4D0
:101170002011E160C90312D5A84208D02246411BC4
:101180002846FFF7C1FF10B14FF0FF3070BD0020BF
:10119000E562C4E90150E06820F48030E06000209E
:1011A00070BD10B50446C06820F02000E060A16A60
:1011B000A06988420DD02046FFF7D0FFE06820F4F8
:1011C000405040F01000E060A06AA0612069E06239
:1011D000606044F24001E0688843E06010BD0000B8
:1011E00010000200002801D000F03CB87047000059
:1011F00010B5014602A000F07DF8012010BD0000EE
:1012000053494752545245443A20526564697265C5
:1012100063743A2063616E2774206F70656E3A20A4
:101220000000000010B5431C02E010F8011B71B172
:101230008107FAD14FF0013202C88C1A8C4314EAAC
:10124000C211F9D0C01A0A0603D0C01E10BDC01AC0
:1012500010BD0A0401D0801E10BD0902FCD0401E42
:1012600010BD000001491820ABBEFEE726000200B9
:1012700000210160C0E9011070471020704703464B
:1012800040688C46002818BF88423CBF034640682F
:10129000F8D318681844884207D00CF1030020F0F6
:1012A0000700001D411A521A0146081D0A60FFF787
:1012B000CABC10B50146C268900703D0900607D596
:1012C000886A0AE000F03EF801210160881E10BD26
:1012D0008B69486818440B69C01A91F848301BB1F3
:1012E00091F84910401A10BD1103FCD50028FADD11
:1012F000401E10BD70B505460C460A2000E06D1C6E
:1013000000F018F835B128780028F8D102E0641C04
:1013100000F010F814B120780028F8D1BDE8704032
:101320000A2000F007B810B500F010F8BDE8104032
:10133000FFF758BF08B569468DF800000320ABBE23
:1013400008BD0000004870478C01002010B501283E
:1013500005D0002103A0FFF7CDFF012010BD09A19A
:10136000F8E7000053494752544D454D3A204F7518
:1013700074206F662068656170206D656D6F72798D
:10138000000000003A2048656170206D656D6F7245
:101390007920636F72727570746564005FEA400C47
:1013A00008BF91F0000F4FEA8C234FEAC12243EAB5
:1013B00051514FEA1C5018BF00F5F0404FEA300081
:1013C00018BF41F000415FEA6C5C00F02980BCF17D
:1013D000FF3F08BF40F080407047130C06BF120467
:1013E0004FF0100C4FF0000C130E04BF12020CF162
:1013F000080C130F04BF12010CF1040C930F04BF6F
:1014000092000CF1020CD30F04BF52000CF1010C3E
:1014100011464FF00002A0F11F00A0EB0C00704736
:1014200011F0004F08BF704731F000413FF4D5AFD5
:101430000B0C06BF09044FF0100C4FF0000C0B0E04
:1014400004BF09020CF1080C0B0F04BF09010CF1D9
:10145000040C8B0F04BF89000CF1020CCB0F04BFEE
:1014600049000CF1010CCCF12003A0EB0C0022FA96
:1014700003F302FA0CF241EA030100F101007047A4
:1014800020F07F4C80EA030023F07F47ACEB07039A
:1014900003F57C5300F0004003F1FF032DE9804980
:1014A0004FEA154B09B44FEA144325EA0B4E24EAE0
:1014B00003480FF2042606EB132749083E785FEA3B
:1014C000320203FB0667C7F5000707FB06F64FEA83
:1014D00054374FEAD64606F1020607FB066CCCF1FC
:1014E000005C4FEA1C472CEA074C07FB06F40CFB98
:1014F00006F504EB15464FEA961634BF00204FF070
:1015000000404FEAD13706FB07FC4FEA1C4C0CFBAE
:101510000BF7D21B03FB0CF761EB07010CFB0EF77B
:10152000B0EB074072EB17420CFB08F734BFA2EB9D
:101530000742B2EB074261EB17414FEA0C444FEA16
:10154000910706FB07FC4FEA1C4C0CFB0BF7B0EBBA
:10155000C74072EB573203FB0CF734BFA2EBC74214
:10156000B2EBC74261EB57310CFB0EF7B0EBC70093
:1015700072EB57720CFB08F734BFA2EBC702B2EB59
:10158000C70261EB5771039F4FEA816141EA9211F3
:1015900004EBCC044FEAD1374FEA826206FB07FC2A
:1015A00042EA90124FEA80604FEA1C4C0CFB0BF7AA
:1015B000D21B03FB0CF761EB07010CFB0EF7B0EB42
:1015C000074072EB17420CFB08F734BFA2EB07424F
:1015D000B2EB074261EB17414FEA8C554FEA910796
:1015E00004EB9C2406FB07FC4FEA1C4C0CFB0BF79E
:1015F000B0EBC74072EB573203FB0CF734BFA2EBE2
:10160000C742B2EBC74261EB57310CFB0EF7B0EBB0
:10161000C70072EB57720CFB08F734BFA2EBC7028E
:10162000B2EBC70261EB577115EB4C254FEA8161B4
:1016300041EA92114FEA82624FEAD13742EA9012B0
:1016400006FB07FC44F100044FEA80604FEA1C4CA3
:101650000CFB0BF7D21B03FB0CF761EB07010CFB38
:101660000EF7B0EB074072EB17420CFB08F734BFE4
:10167000A2EB0742B2EB074261EB174115EB1C15D9
:101680004FEA813141EA92414FEA823242EA904286
:101690004FEA80304FEA0C7644F1000448EA0343F5
:1016A0004EEA0B484FF0000EB2EB080C71EB03074B
:1016B00024BF624639464EEB0E0E4FF0000B001869
:1016C000524149414BEB0B0BB2EB080C71EB03079A
:1016D0007BF1000B24BF624639464EEB0E0E4FF0F5
:1016E000000B0018524149414BEB0B0BB2EB080CBD
:1016F00071EB03077BF1000B24BF624639464EEBCA
:101700000E0E51EA020718BF46F0010616EB0E76E0
:1017100055F1000254F1000103D5BDE88901BDE88F
:101720000088BDE88901BDE80048B619524141EB87
:101730000101A3F10103704780807F7E7D7C7B7A6D
:101740007978777676757473727171706F6E6E6D6D
:101750006C6C6B6A6A696868676666656464636313
:1017600062616160605F5F5E5E5D5D5C5C5B5B5A99
:101770005A59595858575756565555555454535306
:1017800052525251515050504F4F4F4E4E4D4D4D61
:101790004C4C4C4B4B4B4A4A4A49494948484847AC
:1017A00047474746464645454544444444434343EA
:1017B0004342424242414141002B26D4770021D08E
:1017C0001CB54FEA370703B44FF010004FF010017B
:1017D0004FF000000FBCBDE810400BF1010BBBF156
:1017E000010F08BF5FEA170722BF12F1010211F1D2
:1017F00001014FF0004143F1000300F0004043EAD3
:1018000000007047F9D35708DAE746EA064613F1B5
:10181000400F4FEA16461FDD13F1200FDFBF1643BE
:101820000A46002120335B42C8D0C3F1200746EAB4
:10183000064602FA07F74FEA164646EA0706C3F1DC
:10184000200722FA03F201FA07F721FA03F14FF019
:10185000000342EA0702B1E746EA020646EA064604
:101860004FEA164646EA0106BCBF46EA0646360C73
:101870004FF000034FF000024FF000019EE72DE90A
:10188000C048934630B491E8380007C831EA400CAC
:1018900048BF34EA430C03D5FFF7F2FDFFF78CFF96
:1018A000F0BCBDE800882DE9C048934630B491E80B
:1018B000380007C810F0804F08BF13F0804F03D1E5
:1018C00000F005F8FFF778FFF0BCBDE8008820F0D5
:1018D0007F4780EA030023F07F4C07EB0C03A3F55E
:1018E0007C5300F00040A3F1FE0392F0000F00F0E3
:1018F000B38095F0000F00F077802DE901494FEAA1
:1019000011404FEA144621EA004800FB06FC24EA95
:10191000064708FB06F607FB08F800FB07F718EB7D
:1019200006484CEB164C4FEA124B18EB07484FEAAF
:1019300015464CEB174022EA0B4E0BFB06FC25EA42
:1019400006470EFB06F607FB0EFE0BFB07F71EEB2A
:10195000064E4CEB164C4FF000061EEB074E4CEBC0
:10196000174B18EB0B0840F1000018EB0E0B58EB6F
:10197000000840F100008F1A4FF000013CBFC9433E
:10198000661B14BFB5EB040C00213CBFC943F61B1A
:101990004FEA17444EEA8E0E27EA04454FEA1C47E9
:1019A00004FB07622CEA074C05FB07F70CFB05F666
:1019B00004FB0CFC16EB074642EB174216EB0C46F9
:1019C00042EB1C421BEB060658EB0202414146EA81
:1019D0009E0601D5BDE80189B619524141EB0101CE
:1019E000A3F10103BDE801894FEA14454FEA11470D
:1019F00024EA054621EA074C05FB07F406FB07F736
:101A00000CFB06F105FB0CFC11EB074144EB174402
:101A10004FEA124711EB0C4144EB1C4422EA074CFD
:101A200005FB07F206FB07F70CFB06F605FB0CFCB3
:101A300016EB074642EB174216EB0C4642EB1C45F1
:101A40006A1854F1000148BF7047B619524141EB82
:101A50000101A3F10103704795F0000F37D04FEA61
:101A600011424FEA144721EA024624EA074C02FBDE
:101A700007F106FB07F70CFB06F402FB0CFC14EB6A
:101A8000074441EB17414FEA154714EB0C4441EB77
:101A90001C4125EA074C02FB07F506FB07F70CFB88
:101AA00006F602FB0CFC16EB074645EB174516EB5A
:101AB0000C4645EB1C42121951F1000148BF70471A
:101AC000B619524141EB0101A3F1010370474FEAFE
:101AD00014454FEA114724EA054621EA074C05FB65
:101AE00007F106FB07F70CFB06F24FF0000605FBBB
:101AF0000CFC12EB074241EB174112EB0C4251EB8D
:101B00001C4148BF7047921841EB0101A3F101034A
:101B10007047000008B50121084600F067FC01216C
:101B20004FF4047000F072FC0120ADF800000020BA
:101B30008DF803006946024800F0ACFA08BD0000C9
:101B40000010014010B5FFF7E5FF00F001F810BDEF
:101B500000B591B0364800F05DF93648019036483E
:101B600002900020039032200490002005908020F5
:101B70000690400007908000089020200990000205
:101B80000A9000200B9001A9294800F0E9F90121F1
:101B9000274800F033F900200C9001208DF8340024
:101BA0008DF835004FF460200E9000200F90022039
:101BB0008DF840000CA91F484C3800F069F84FF42C
:101BC000404000F007FC072301220A2119484C3845
:101BD00000F086F8072302220B2116484C3800F04B
:101BE0007FF8012113484C3800F033F801211148E7
:101BF0004C3800F023F80F484C3800F0CDF800BF07
:101C00000C484C3800F03AF80028F9D109484C3813
:101C100000F0D2F800BF07484C3800F025F8002843
:101C2000F9D1012103484C3800F0BBF811B000BDD8
:101C3000080002404C2401402C00002021B18268A1
:101C400042F00102826003E0826822F001028260B9
:101C5000704721B1826842F48072826003E082683A
:101C600022F4807282607047014600208A6802F088
:101C700004020AB1012000E0002070470146002064
:101C80008A6802F008020AB1012000E000207047D3
:101C900030B502460020002350680F4C20400D79DB
:101CA0000C6844EA05242043506090680B4C2040A7
:101CB000D1E902542C434D7944EA45042043906015
:101CC000D06A20F470000C7C641EE4B2234340EA26
:101CD0000350D06230BD0000FFFEF0FFFDF7F1FFC2
:101CE000F0B504460D4600200021092D11DDE06805
:101CF000A5F10A0606EB4607072606FA07F1884310
:101D0000A5F10A0606EB460603FA06F10843E06071
:101D10000CE0206905EB4507072606FA07F1884322
:101D200005EB450603FA06F108432061072A0FDA9E
:101D3000606B561E06EB86071F2606FA07F18843DE
:101D4000561E06EB860605FA06F10843606322E09C
:101D50000D2A0FDA206BD61F06EB86071F2606FA20
:101D600007F18843D61F06EB860605FA06F10843FD
:101D7000206310E0E06AA2F10D0606EB86071F263D
:101D800006FA07F18843A2F10D0606EB860605FA6E
:101D900006F10843E062F0BD816841F0080181600E
:101DA000704721B1826842F4A002826003E0826839
:101DB00022F4A00282607047816841F004018160D2
:101DC000704700BFFEE7000008B50121042000F0C5
:101DD0001DFB4FF48070ADF8000003208DF8020069
:101DE00010208DF803000101034800F0E0F9694676
:101DF000014800F04FF908BD0008014021B1026818
:101E000042F00102026004E002684FF6FE731A40DD
:101E10000260704701684FF6FE72114001600021B8
:101E2000016041608160C1604B49884208D14A49E4
:101E30000839496841F00F01474A083A51608AE081
:101E400045491431884208D143490839496841F06D
:101E5000F001414A083A51607DE03F49283188420B
:101E600008D13D490839496841F470613A4A083A55
:101E7000516070E038493C31884208D13649083910
:101E8000496841F47041344A083A516063E032498C
:101E90005031884208D130490839496841F47021ED
:101EA0002D4A083A516056E02B496431884208D1E6
:101EB00029490839496841F47001274A083A5160B4
:101EC00049E025497831884208D1234908394968D1
:101ED00041F07061204A083A51603CE01F49884255
:101EE00006D1011F096841F00F01021F116032E0A5
:101EF0001A491431884208D11849091F096841F06C
:101F0000F001164A121F116025E014492831884259
:101F100008D11249091F096841F470610F4A121F64
:101F2000116018E00D493C31884208D10B49091F66
:101F3000096841F47041094A121F11600BE007491A
:101F40005031884207D10549091F096841F47021C1
:101F5000024A121F11607047080002400804024044
:101F600010B50022026847F6F0739A430C6A8B683A
:101F700023430C6923434C6923438C692343CC6975
:101F800023434C6A23438C6A23431A430260CB6881
:101F900043600B6883604B68C36010BD70470000EE
:101FA00010B5012000F048F8012804D100F03EF8F7
:101FB00001A0FEF743F910BD45585449300D0A0001
:101FC00010B5022000F038F8012805D1022000F0F9
:101FD0002DF802A0FEF732F910BD00004558544913
:101FE000310D0A0010B5042000F026F8012805D1B3
:101FF000042000F01BF802A0FEF720F910BD00003D
:1020000045585449320D0A0010B5082000F014F864
:10201000012805D1082000F009F802A0FEF70EF90A
:1020200010BD000045585449330D0A0001490860AD
:102030007047000014040140014600200022074BB5
:102040001B6803EA0102054B14331B680B4013B1F4
:102050000AB1012000E000207047000000040140A8
:102060000549096821F01001034A11601146096809
:10207000014311607047000000200240014600202B
:10208000034A106800F038000843106070470000F1
:10209000002002402DE9F0410246002500260020E4
:1020A00000230024002791F803C00CF00F0591F8DD
:1020B00003C00CF0100CBCF1000F03D091F802C06B
:1020C0004CEA050591F800C0BCF1000F31D014684E
:1020D00000202BE04FF0010C0CFA00F3B1F800C027
:1020E0000CEA03069E4220D183004FF00F0C0CFA3D
:1020F00003F7BC4305FA03FC4CEA040491F803C05F
:10210000BCF1280F06D14FF0010C0CFA00FCC2F80C
:1021100014C00AE091F803C0BCF1480F05D14FF09C
:10212000010C0CFA00FCC2F810C0401C0828D1D3E6
:102130001460B1F800C0BCF1FF0F34DD546800201A
:102140002EE000F1080C4FF0010808FA0CF3B1F88A
:1021500000C00CEA03069E4221D183004FF00F0C11
:102160000CFA03F7BC4305FA03FC4CEA040491F8AB
:1021700003C0BCF1280F05D100F1080C08FA0CF8D7
:10218000C2F8148091F803C0BCF1480F07D100F1E8
:10219000080C4FF0010808FA0CF8C2F81080401C37
:1021A0000828CED35460BDE8F081416170470161D9
:1021B0007047000010B50024204600F07FFD024863
:1021C00030F8140010BD0000140000202DE9F05F6D
:1021D0000446A146484600F063FF834600F034FF02
:1021E00007464FF06632054B00F030FE054600F022
:1021F000FBFD82465046BDE8F09F000066664A3F00
:1022000000BFFEE710B50446A0B200F039FD10BDD6
:1022100070B50646002415E004F1B001C8B200F024
:10222000A1F8012000F09EF8102000F09BF8002596
:1022300004E0304600F0A2F8681CC5B2802DF8DB3F
:10224000601CC4B2082CE7DB70BD10B500F0A6F826
:1022500000F060F8AE2000F085F8002000F082F871
:10226000102000F07FF8402000F07CF8812000F082
:1022700079F8CF2000F076F8A12000F073F8C8209C
:1022800000F070F8A62000F06DF8A82000F06AF8C1
:102290003F2000F067F8D32000F064F8002000F041
:1022A00061F8D52000F05EF8802000F05BF8D920BE
:1022B00000F058F8F12000F055F8DA2000F052F85C
:1022C000122000F04FF8DB2000F04CF8402000F026
:1022D00049F8202000F046F8022000F043F88D2055
:1022E00000F040F8142000F03DF8A42000F03AF887
:1022F000A62000F037F8AF2000F034F8AF2000F04F
:1023000031F80020FFF784FF0021084600F018F89C
:1023100010BD000010B520210848FFF748FF6420D9
:10232000FFF770FF20210548FFF73FFF6420FFF70C
:1023300069FF20210148FFF73AFF10BD001001405E
:1023400070B504460D4605F1B001C8B200F00AF8B8
:10235000102141EA141000F005F804F00F0000F01D
:1023600001F870BD10B5044601210348FFF71DFFB9
:10237000204600F0DFF910BD000C014010B5044606
:1023800001210348FFF713FF204600F0D3F910BDE9
:10239000000C014000BFFEE77047000008B50121B6
:1023A000102000F033F83020ADF8000003208DF845
:1023B000020010208DF8030069460448FFF76AFE0A
:1023C00020210248FFF7F3FE08BD00000010014085
:1023D0007047000001460020034A506820F4404046
:1023E00008435060704700000010024029B1064ABF
:1023F00052690243044B5A6104E0034A5269824322
:10240000014B5A61704700000010024029B1064A92
:1024100092690243044B9A6104E0034A9269824341
:10242000014B9A61704700000010024010B500F0A7
:102430002FF84FF4803000F0EDF800F049F9044631
:10244000012C24D11020FFF70BFE0220FFF716FE0F
:10245000002000F0D3F8002000F00EF9A00200F0F8
:10246000FFF84FF4E011200400F018F9012000F00B
:102470000FF900BF392000F09BF80028FAD00220A5
:1024800000F01AF900BF00F0B1F80828FBD110BD28
:102490000F48006840F001000D4908600846406898
:1024A0000C4908400A494860084600680A49084043
:1024B000074908600846006820F480200860084644
:1024C000406820F4FE0048604FF41F0088607047A9
:1024D000001002400000FFF8FFFFF6FE30B50021BB
:1024E0000022002400232D4D6D6805F00C0121B160
:1024F000042905D0082923D105E0294D056022E0F3
:10250000274D05601FE0254D6D6805F47012234DC1
:102510006D6805F48034022505EB92421CB9214D0B
:10252000554305600BE01D4D6D6805F400351DB188
:102530001C4D5543056002E0194D5543056002E00E
:10254000174D056000BF00BF144D6D6805F0F00128
:102550000909154D6B5C0568DD4045600F4D6D68E0
:1025600005F4E061090A104D6B5C4568DD4085604B
:102570000A4D6D6805F46051C90A0B4D6B5C4568E6
:10258000DD40C560054D6D6805F44041890B074D80
:102590006B5CC568B5FBF3F5056130BD001002400A
:1025A00000127A0000093D00000000201000002009
:1025B00010B501460022002300204A11012A02D151
:1025C000094C236806E0022A02D1074C236A01E085
:1025D000054C636A01F01F02012494401C400CB1B9
:1025E000012000E0002010BD0010024002484068B9
:1025F00000F00C007047000000100240014600206F
:10260000034A506820F0F000084350607047000013
:10261000001002401149096821F480310F4A11600D
:102620001146096821F480211160B0F5803F03D084
:10263000B0F5802F0ED106E00849096841F48031D9
:10264000064A116007E00549096841F4A021034AE0
:10265000116000E000BF00BF7047000000100240A2
:1026600001460020034A506820F4E06008435060AF
:10267000704700000010024001460020034A5068E5
:1026800020F4605040EAC1005060704700100240E2
:1026900001490866704700000000424202460020DF
:1026A000044B586820F47C1042EA01031843014BA4
:1026B000586070470010024001460020034A5068ED
:1026C00020F00300084350607047000000100240F3
:1026D00038B5002000900024002500BF3120FFF70E
:1026E00067FF05460098401C00900098B0F5A06F69
:1026F00001D0002DF2D03120FFF75AFF08B101249C
:1027000000E00024204638BD08B501210420FFF771
:102710007DFEA020ADF8000003208DF802001020FF
:102720008DF8030069460248FFF7B4FC08BD0000BD
:102730000008014070B50446002517E020210D482F
:10274000FFF733FD04F0800020B180210948FFF736
:102750002EFD03E080210748FFF727FD20210548D3
:10276000FFF725FD6006040E681CC5B2082DE5DBE9
:1027700070BD000000080140704710B500F002F87D
:1027800010BD00000CB50020019000903348006897
:1027900040F480303149086000BF3048006800F4E0
:1027A000003000900198401C0190009818B90198E1
:1027B000B0F5A06FF1D12948006800F4003010B1E5
:1027C0000120009001E0002000900098012843D1F2
:1027D0002348006840F0100021490860084600685E
:1027E00020F0030008600846006840F0020008601E
:1027F0001A484068194948600846406848600846D9
:10280000406840F4806048600846406820F47C10CE
:1028100048600846406840F4E81048600846006890
:1028200040F08070086000BF0C48006800F0007045
:102830000028F9D00948406820F0030007494860A3
:102840000846406840F00200486000BF0348406806
:1028500000F00C000828F9D10CBD00000010024067
:1028600000200240704700004FF0E021096921F08C
:1028700004014FF0E0221161C21700EB5272C2F363
:10288000C702074B1A701946097801EB4102C2EBE7
:10289000C1114FF6FF7202EAC101024A118070476E
:1028A000180000201A00002010B51348006840F0FE
:1028B00001001149086008464068104908400E4967
:1028C0004860084600680E4908400B490860084601
:1028D000006820F4802008600846406820F4FE006C
:1028E00048604FF41F008860FFF747FF4FF000601B
:1028F0000449086010BD0000001002400000FFF80D
:10290000FFFFF6FE08ED00E010B50121880700F09A
:102910000AF8012803D10121800700F001F810BD59
:10292000CA430282704730B50246002000230024CB
:10293000158A05EA0103958905EA010413B10CB172
:10294000012000E0002030BD10B525200321002823
:1029500007DA0A07140E0C4A00F00F031B1FD454A9
:1029600003E00A07130E094A135400BF252000F0A4
:102970001F02012191404209920002F1E022C2F8B7
:10298000001100BF10BD000018ED00E000E400E001
:1029900000B585B0012144F20500FFF737FD4FF483
:1029A0000070ADF8100003208DF8120018208DF88B
:1029B000130004A91948FFF76DFB4FF48060ADF8D0
:1029C000100004208DF8130004A91448FFF762FBDF
:1029D0004FF4164000900020ADF80400ADF806005A
:1029E000ADF808000C20ADF80A000020ADF80C008E
:1029F00069460B4800F0B8F8012240F2255108481A
:102A000000F08CF80648008820F040000449088057
:102A10000121034800F03FF805B000BD0008014067
:102A20000038014010B540F225510B4800F04CF839
:102A3000012810D140F22551074800F01DF8064842
:102A4000001D0088054908700846007800F0A4F9C8
:102A500003A0FDF7F3FB10BD003801401C0000206F
:102A60000D0A5553415254315F49525148616E64C9
:102A70006C65720D0A00000010B50022002340F6BC
:102A80006A14A14200D100BF0A1201249440A3B2EB
:102A9000DC43048010BD21B1828942F4005282815E
:102AA00004E082894DF6FF731A4082817047024626
:102AB0000020B1F5007F00D100BF13880B400BB19F
:102AC000012000E00020704770B50246002400237A
:102AD0000025002040F66A16B14200D100BFC1F3C4
:102AE000421501F01F03012606FA03F3012D02D15E
:102AF0009689334006E0022D02D1168A334001E068
:102B0000968A33400C12012606FA04F416883440E3
:102B100013B10CB1012000E0002070BDF0B50346F8
:102B2000002400260025002040F66A17B94200D193
:102B300000BF1846C1F3421401F01F06012707FA2F
:102B400006F5012C01D10C3004E0022C01D110302B
:102B500000E014301AB107682F43076002E00768ED
:102B6000AF430760F0BD00002DE9F04786B0054691
:102B70000E460024A24600BFA1460027B08900B13E
:102B800000BF2F462C8A4CF6FF700440F0880443A7
:102B90002C82AC894EF6F3100440B088318908438A
:102BA000718908430443AC81AC8A4FF6FF4004406E
:102BB000B0890443AC8201A8FFF790FC1F4887420C
:102BC00002D1DDF810A001E0DDF80CA0A88900F426
:102BD000004040B10AEBCA0000EB0A10316849001E
:102BE000B0FBF1F807E00AEBCA0000EB0A1031680D
:102BF0008900B0FBF1F86420B8FBF0F00401200973
:102C0000642101FB1089A88900F4004040B1322002
:102C100000EBC900B0FBF1F000F00700044308E04E
:102C2000322000EB09106421B0FBF1F000F00F003E
:102C300004432C8106B0BDE8F08700000038014055
:102C400010B5FFF7A5FEFFF77FFE10BDC1F3080228
:102C50008280704700BFFEE7490050EAC12018BFDC
:102C600004204A0D18BF40F0010040F2FF72B2EBA1
:102C7000515F08BF40F00200012808BF05207047DF
:102C800001460D4A12884A434FF0E0235A61002260
:102C90009A6101221A6100BF4FF0E022106900F032
:102CA00001021AB100F48032002AF5D000224FF060
:102CB000E0231A619A6170471A00002010B501469E
:102CC0000022002005E0074B33F810301A44431C63
:102CD000D8B23228F7DB322392FBF3F3024C24F80C
:102CE000113010BD2C0000201400002070B50446E7
:102CF0000D46E1B20548FFF7A9FF00BF4021034898
:102D0000FFF7D5FE0028F9D0204670BD00380140FD
:102D100000BF00BFFFF7BCFBFFF788FB4820FFF7B1
:102D2000A3FDFFF78DFFFFF7EFFCFFF78EFAFEF72D
:102D300009FFFFF749F80EA0FDF780FA16E0FFF74C
:102D400039FA8046FFF742FA044600F07DF905465D
:102D50000E46FFF72FFA07462A463346394606A0A5
:102D6000FDF76CFA4FF47A70FFF78AFFE7E700008F
:102D7000434831300D0A000043483130204144437C
:102D80005F56414C203D20256420202056203D20C8
:102D900025660D0A0000000010B5044621460648CD
:102DA000FFF754FF00BF40210348FFF780FE0128D2
:102DB000F9D1204610BD00000038014010B50029AF
:102DC0000AD00878002807D005487844FEF75AF85A
:102DD000002801D0002010BD0248784410BD00003A
:102DE000560400004E04000021F00042A2F160529F
:102DF000B2F5801F01F0004328BFD2F17F6C0BD9E0
:102E00005FEA001C43EAC20242EB507018BF7047F1
:102E100028BF20F001007047B2F5801FBCBF1846E4
:102E200070474FEA410C1CF5001F02D2084600F023
:102E300090B970B500F0B4F800000089FFF7F6BF54
:102E40004FF00040A0F5800070470000DFF848C157
:102E500070B51CEA111E1EBF1CEA13159EEA0C0F6A
:102E600095EA0C0F00F06F8081EA030423EA4C130B
:102E70004EEAD47E21EA4C1141F4801143F48013D0
:102E8000AE44A1FB024CA0FB0365AEF17F7E361978
:102E900055EB0C05A1FB034C4CF10003A0FB021CFD
:102EA00016EB0C06654153F10003094218BF46F0CA
:102EB000010613F4007F0BD14FEA03314FEA0530CE
:102EC000340341EA155140EA16506FF003020AE05C
:102ED0004FEAC3214FEAC520F40241EA555140EAC6
:102EE00056506FF0020202EB2E4201EB025585EACA
:102EF000CE710AD05FEA440C18BF24F0004450F1B0
:102F0000000041F1000120EAD47040F2FE7C6245ED
:102F100000D270BDA84214BF4FF080444FF040442F
:102F2000002E08BF0024BEF1806FA8BFA1F1C041F0
:102F3000BDE8704080F282804FF0000001F1C04196
:102F400001F0004170479EEA0C0F0CEA131518BF00
:102F500095EA0C0F06D04FF0000081EA030E0EF048
:102F6000004170BD00F01CF88900013E00F007B878
:102F700000F009B84FEA430C5FEA5C5C08D081EAD4
:102F8000030100F05BB84FEA410C5FEA5C5CF6D1EC
:102F90004FF00000014970470000FF070000F87F74
:102FA0000EF1020E2EF0030E5EF8046B364205D4CD
:102FB000012A43EB030515F5001F12D8012841EB48
:102FC000010C1CF5001F0CD80ED14FEAD17C15F571
:102FD000001F0CEB4C0C0CF1020C08BF4CEBD37C2B
:102FE00004E04FF0080C01E04FEAD37C0CEB4C05F9
:102FF00026FA05F606F00706B6F1040C06D20EEB2B
:10300000860CBDE870404CF0010C6047DFE80CF026
:10301000090B02024FF000414FF00000A1F5002122
:1030200070BD19461046012851EB010418BFD4F5B4
:10303000001484BF002001F0004170BD0808A0F515
:1030400000114FEA3101704743004FEAD30C4FEAB9
:103050003C0C43401FBF40070CF1605113F0FE4F82
:1030600070471CF0006F03D100200CF00041704746
:103070000CF0004343EA507010B540EACC0000F079
:1030800022F800BF000000924FEA0001FFF7D6BF10
:103090004FF000414FF00000A1F500217047000003
:1030A000B0FA80F310FA03F2C3F19D030AD0D905F8
:1030B00001EB1220530638BF704700F1010008BF32
:1030C00020F0010070470EF1020E2EF0030E5EF8A4
:1030D000044B244204D44FEA4102B2F17F4F11D88D
:1030E0004FEA4003B3F17F4F0CD80ED14FEAD07CAA
:1030F000B2F17F4F0CEB4C0C0CF1020C08BF4CEB07
:10310000D17C04E04FF0080C01E04FEAD17C0CEBDD
:103110004C0324FA03F404F00704B4F1040C06D2BF
:103120000EEB840CBDE810404CF0010C6047DFE86A
:103130000CF0070802024FF00040A0F5800010BD1F
:103140000846420018BFD2F1807288BF00F00040EC
:1031500010BDFF2141EAD050C0057047FDF71DBAF0
:1031600002400000000000A0000000000540000038
:10317000000000C8000000000C4000000000409C5F
:1031800000000000194000000020BCBE000000004C
:1031900034400000BFC91B8E00000004B540000091
:1031A000504BCFD06607E2CF010000006C41000019
:1031B0003E8251AADFEEA73401000000D942000090
:1031C000DCB5A0E23A301F97FFFFFFFFB4450000D7
:1031D000FD25A0C8E9A3C14FFFFFFFFFFF3F00008F
:1031E0000000008000000000FF3F000000000080A1
:1031F000000000003A7474003A7474003A74740069
:103200003C320008000000202C0000006C01000887
:10321000683200082C000020C40700008801000864
:103220001C00000043000000F8FFFFFF0C0000003E
:103230000E0000000F0000002E0000000000000043
:103240000102030401020304060708090204060838
:10325000000000000000000000000000000000006E
:08326000000000000000000066
:0400000508000131BD
:00000001FF
